:100000000C9466000C948E000C948E000C948E0060
:100010000C948E000C948E000C948E000C948E0028
:100020000C948E000C948E000C948E000C94510253
:100030000C948E000C948E000C948E000C948E0008
:100040000C9407020C948E000C948E000C948E007D
:100050000C948E000C948E000C948E000C948E00E8
:100060000C948E000C948E00000000080002010029
:100070000003040700000000000000000000000072
:10008000250028002B0000000000240027002A0083
:10009000040404040404040402020202020203032E
:1000A0000303030301020408102040800102040836
:1000B00010200102040810201112131415160A0B47
:1000C0000C0D0E0F0001020304058C0411241FBE49
:1000D000CFEFD8E0DEBFCDBF11E0A0E0B1E0E0E6B9
:1000E000FAE002C005900D92A630B107D9F721E0E1
:1000F000A6E0B1E001C01D92AB34B207E1F710E019
:10010000C6E6D0E004C02197FE010E942805C5364E
:10011000D107C9F70E940D030C942E050C94000022
:100120008F929F92AF92BF92FF920F931F93CF93A4
:10013000DF93F09036012BE02F1508F451C0209189
:10014000380108E512E0021B110927FD1395000F85
:10015000111F000F111F20913701C8E8D0E0C21B0A
:10016000D10927FDD395CC0FDD1FCC0FDD1F4E012C
:100170000D2E000CAA08BB08DC01853B910514F08C
:10018000A4EBB0E09801012E000C440B550B28198C
:1001900039094A095B090E94E30424EB30E040E09E
:1001A00050E00E94B904820E931EA41EB51E8C1648
:1001B0009D062CF0E801801691060CF4E4012297CC
:1001C000CC0FDD1F2FB7F8948F2D90E0FC01EE0FC0
:1001D000FF1FE80FF91FEE5EFE4FD283C1832FBFD2
:1001E000DF91CF911F910F91FF90BF90AF909F90A3
:1001F0008F90089590E0FC01E859FF4F2491FC0195
:10020000EC55FF4F3491FC01E057FF4FE491EE2392
:10021000C9F0222339F0233001F1A8F4213019F17B
:10022000223029F1F0E0EE0FFF1FE458FF4FA591B7
:10023000B4918FB7F894EC91611126C030953E23AC
:100240003C938FBF08952730A9F02830C9F024309F
:1002500049F7809180008F7D03C0809180008F7767
:1002600080938000DFCF84B58F7784BDDBCF84B5EA
:100270008F7DFBCF8091B0008F778093B000D2CF7D
:100280008091B0008F7DF9CF3E2BDACF9CB59F7D5A
:100290009CBD9CB5937F9CBD9CB59C7F9CBD9DB532
:1002A00091609DBD682F80913A010E94FA008FE015
:1002B00090E00197F1F708953FB7F89480910D0110
:1002C00090910E01A0910F01B091100126B5A89B4D
:1002D00005C02F3F19F00196A11DB11D3FBFBA2FD8
:1002E000A92F982F8827BC01CD01620F711D811D98
:1002F000911D42E0660F771F881F991F4A95D1F71D
:1003000008958F929F92AF92BF92CF92DF92EF9219
:10031000FF924B015C010E945C016B017C010E9419
:100320005C016C197D098E099F09683E7340810547
:100330009105A8F321E0821A9108A108B10888EE7E
:10034000C80E83E0D81EE11CF11C81149104A104A5
:10035000B10429F7FF90EF90DF90CF90BF90AF905E
:100360009F908F9008958EBD00000DB407FEFDCFC5
:100370008EB50895CF93C82F80E00E9446018C2F40
:100380000E94B3018FEF0E94B301C82F81E00E9449
:1003900046018C2FCF910895CF93DF93C82FD62F8E
:1003A00080E00E9446018C2F8F7180620E94B30111
:1003B000C82F8D2F0E94B30181E00E9446018C2F2F
:1003C000DF91CF910895EF92FF920F931F93CF93F8
:1003D000DF93C82F7B01142F80E00E9446018C2FF1
:1003E0008F7180620E94B301082FE701115020F045
:1003F00089910E94B301FACF81E00E944601802FCB
:10040000DF91CF911F910F91FF90EF9008951F9270
:100410000F920FB60F9211242F933F938F939F93B8
:10042000AF93BF938091090190910A01A0910B01B4
:10043000B0910C013091080123E0230F2D3758F5BE
:100440000196A11DB11D209308018093090190938D
:100450000A01A0930B01B0930C0180910D019091C2
:100460000E01A0910F01B09110010196A11DB11DC7
:1004700080930D0190930E01A0930F01B093100192
:10048000BF91AF919F918F913F912F910F900FBE90
:100490000F901F90189526E8230F0296A11DB11DFD
:1004A000D2CF1F920F920FB60F9211242F933F932A
:1004B0004F935F936F937F938F939F93AF93BF936C
:1004C000CF93DF93EF93FF9380910701C0910601D3
:1004D000D0E087FF24C010928500109284008091A4
:1004E00007018F5F8093070180910701082E000CA0
:1004F000990B8C179D0724F4809107018C30C4F16F
:100500008091840090918500049680349C4908F481
:100510007AC08091840090918500049676C0809185
:100520000701082E000C990B8C179D07C4F6E0916B
:1005300007018E2FEE0F990BFC01EE0FFF1FE80F46
:10054000F91FEE5EFE4F808186FFC9CFE091070163
:100550008E2FEE0F990BFC01EE0FFF1FE80FF91F16
:10056000EE5EFE4F808160E08F730E94FA00B7CF8D
:100570002091840030918500E09107018E2FEE0FCD
:10058000990BFC01EE0FFF1FE80FF91FEE5EFE4F07
:1005900081819281820F931F9093890080938800BC
:1005A000E09107018E2FEE0F990BFC01EE0FFF1F5C
:1005B000E80FF91FEE5EFE4F808186FF11C0E091CB
:1005C00007018E2FEE0F990BFC01EE0FFF1FE80FB6
:1005D000F91FEE5EFE4F808161E08F730E94FA008A
:1005E000FF91EF91DF91CF91BF91AF919F918F914B
:1005F0007F916F915F914F913F912F910F900FBE1F
:100600000F901F90189580E49CE990938900809347
:1006100088008FEF80930701E3CF789484B58260E0
:1006200084BD84B5816084BD85B5826085BD85B596
:10063000816085BD80916E00816080936E00109214
:10064000810080918100826080938100809181008F
:100650008160809381008091800081608093800020
:100660008091B10084608093B1008091B00081607E
:100670008093B00080917A00846080937A008091AA
:100680007A00826080937A0080917A008160809302
:100690007A0080917A00806880937A001092C1007D
:1006A000809136018C3008F068C0EDEAF0E02491CA
:1006B000E9E9F0E08491882399F090E0880F991F90
:1006C000FC01EA57FF4FA591B491FC01E458FF4F9C
:1006D000859194918FB7F894EC91E22BEC938FBFB6
:1006E00080913601282F30E0F901EE0FFF1FE20F55
:1006F000F31FEE5EFE4F9081907C99609083109284
:100700003701109238012CE0622F0E941C05829F55
:10071000B001112430E020E0AB01420F531FFA0179
:10072000EE0FFF1FE40FF51FEE5EFE4F908196FD6A
:1007300016C02F5F3F4F2C30310571F781110FC06C
:100740001092800082E080938100109285001092C8
:100750008400B19A80916F00826080936F00E09175
:1007600036018E2F90E0FC01EE0FFF1FE80FF91FFE
:10077000EE5EFE4F808180648083EFEBF0E0849139
:100780004091450160E071E00E94E301E9EBF0E097
:10079000849160913E010E94CC0182E00E94BA01E6
:1007A000E5ECF0E0E49161E070E001C0660FEA95ED
:1007B000EAF7682B82E00E94CC0180E00E94BA0137
:1007C00081FD0BC0682F626080E00E94CC0165E073
:1007D00070E080E090E00E94810180E00E94BA0118
:1007E000682F616080E00E94CC0160E787E00E9492
:1007F000CC018091390190913A01891719F061E09B
:100800000E94FA00809140018823E1F14091450166
:1008100060E471E08AE00E94E3018DE10E94BA0188
:1008200081FF09C080E00E94460181EE0E94B30171
:1008300081E00E94460100E010E087E10E94BA01D9
:1008400080FD63C0D0913E0180913F01C0E08111E5
:1008500006C081E0D11101C080E0CD2FC81B80E02F
:100860000E94460181E60E94B301DD2329F08FEF4B
:100870000E94B30180931101C150B8F08FEF0E9424
:10088000B301FACF82E00E94BA01E4ECF0E0E49117
:1008900021E030E001C0220FEA95EAF72095622FAF
:1008A000682382E00E94CC01B8CF81E00E9446011B
:1008B00060E787E00E94CC0180911101882329F133
:1008C000C4E1D0E0CE010E9490006AE070E080E0D8
:1008D00090E00E9481012A96C83181E0D80791F703
:1008E00060E177E280E090E00E948101CEE0D1E01B
:1008F000CE010E9490006AE070E080E090E00E94EB
:1009000081012A97CA30D10599F70115110509F41B
:1009100094CF0E94000091CF87E08093390188E056
:1009200080933A0110923D0180E280933E01109243
:100930003F0185E0809345011092400180910601BE
:100940008C3098F491E0980F9093060180933601D3
:1009500090E0FC01EE0FFF1FE80FF91FEE5EFE4F67
:1009600088EB9BE09283818308958FEF809336011B
:100970000895052E97FB1EF400940E94D00457FDA5
:1009800007D00E94EB0407FC03D04EF40C94D00473
:1009900050954095309521953F4F4F4F5F4F0895AB
:1009A00090958095709561957F4F8F4F9F4F0895DB
:1009B0000E940D05A59F900DB49F900DA49F800DE2
:1009C000911D11240895B7FF0C94D8040E94D804F7
:1009D000821B930B0895A1E21A2EAA1BBB1BFD01DB
:1009E0000DC0AA1FBB1FEE1FFF1FA217B307E4070E
:1009F000F50720F0A21BB30BE40BF50B661F771F66
:100A0000881F991F1A9469F7609570958095909545
:100A10009B01AC01BD01CF010895A29FB001B39F1E
:100A2000C001A39F700D811D1124911DB29F700DF7
:100A3000811D1124911D0895991B79E004C0991F0F
:100A4000961708F0961B881F7A95C9F78095089528
:100A5000EE0FFF1F0590F491E02D0994F894FFCF5D
:060A6000316E6F646500B9
:00000001FF
